:100D460073746172740A0025642025642025640A80
:010D5600009C
:060D810043002DFFFFFFFF
:10063800120D227F147E00120C9A12079A7BFF7A01
:100648000D79461200897D017F01120A047D047F1D
:1006580001120A047D077F01120A047D057F011239
:100668000A047D067F01120A047D037F01120A5DD8
:100678007D047F01120A5DD2917BFF7A0D794D903E
:10068800002DE0900003F090002EE0900004F09020
:10069800002FE0900005F0120089E4900028F09007
:1006A800002A74FFF0E4900029F0C87400C8CC74E4
:1006B80000CCCD7401CD7B017A007928FE7F03122E
:1006C80004531208DC120D68C87400C8CC7400CC3E
:1006D800CD7401CD7B017A0079287E007F03120456
:0606E800531208DC80E261
:100D220075A15575A1AAE5B954F84406F5B9E4F5DB
:020D3200A122FC
:100C8000EF4E601505A105A105A105A105A105A1CE
:0A0C900005A1EF1F70EA1E80E722A5
:100C9A00CDEFCDCCEECCED4C600E7FE87E03120C8E
:090CAA0080ED1D70F11C80EE22AA
:100CCC0075A15575A1AAEF600543B101800353B11D
:070CDC00FEE4F5A1F5FF2283
:030D88008FFF22B8
:100A0400EF14601C14602B14603C2403704AC8ED7E
:100A1400C87401088002C333D8FCF4529252932262
:100A2400C8EDC87401088002C333D8FCFFF45292A5
:100A34008023C8EDC87401088002C333D8FCFF4288
:100A440092EFF4529322C8EDC87401088002C333B4
:090A5400D8FCFF4292EF4293220C
:100A5D00EF14601C14602B14603C2403704AC8ED25
:100A6D00C87401088002C333D8FCF4529652972201
:100A7D00C8EDC87401088002C333D8FCFFF4529648
:100A8D008023C8EDC87401088002C333D8FCFF422F
:100A9D0096EFF4529722C8EDC87401088002C33353
:090AAD00D8FCFF4296EF429722AB
:100CF900434F44453A3100434F44453A3200434F4C
:050D090044453A3300EF
:100CE300D29700D2940000000000C29700000000D9
:060CF30000C29400002283
:100D5700C29700D2940000000000D2970000000064
:010D67002269
:100AFD00E4FEEEC39408748094805021C8EEC8EFD4
:100B0D00088002C333D8FC30E704D2978002C29725
:100B1D0000D2940000000000C2940E80D50000D2D7
:100B2D00970000D294000000309704C20B8002D2CF
:050B3D000BC294000052
:010B42002290
:100BF300E4FFD297FEEEC3940874809480501900EA
:100C0300C2940000000000D2940000EF25E0FF3002
:0C0C130097010F00000E80DDC29400006D
:010C1F0022B2
:060C4700EF1204BFD20A07
:100C4D00200A04C2978002D297000000D2940000BF
:080C5D00000000C29400002217
:100C6500120CE3120AFD200B02C322CFEDCF120AAC
:0B0C7500FD200B02C322120D57D322FA
:100B4300120CE3120AFD200B02C322CFEDCF120ACF
:100B5300FD200B02C322E4FD90004DE0FFEDC39F97
:100B63005016120479FF120AFD200B02C3227401EE
:0C0B730029F9E43AFA0D80E0120D57D386
:010B7F002253
:100CB300120CE3EF04FF120AFD200B02C322120BF6
:090CC300F3120C47120D57D32265
:10083F0090004EEFF0A3EDF0A3EBF0A3EAF0A3E9E5
:01084F00F0B8
:10085000120CE390004EE0FF120AFD200B087BFF14
:100860007A0C79F9802890004FE0FF120AFD200BE6
:10087000087BFF7A0D79008015120CE390004EE0A2
:1008800004FF120AFD200B0C7BFF7A0D7907120082
:10089000897F0022E4FD900053E014FFEDC39F50D8
:1008A00024120BF3900050E0FBA3E0FAA3E0F9EF71
:1008B0001204BFC20A120C4D900051E475F00112EF
:1008C00004D10D80D1120BF3900050E0FBA3E0FAAD
:0B08D000A3E0F9120C47120D577F0146
:0108DB0022FA
:1006EE00E4900056F07B017A007954900053740226
:1006FE00F0E4FD7F9E12083F900054E0FFC20930E7
:10070E00E705D209F4FF0FEF30E006900056E00443
:10071E00F0EF30E107900056E02402F0EF30E207F0
:10072E00900056E02404F0EF30E307900056E024EA
:10073E0008F0EF30E407900056E02410F0EF30E5BB
:10074E0007900056E02420F0EF30E607900056E0C8
:10075E002440F0900056E090002CF0E4900056F00B
:10076E00900055E0FF30E505A3E0240CF0EF30E6F5
:10077E0007900056E02419F0EF30E707900056E09E
:0B078E002432F0900056E090002BF0A9
:01079900223D
:100BBA00EFFB7A007009E58954F04DF5898027EB3F
:100BCA0064014A7011CFEDCFEFC454F0FFE58954A8
:100BDA000F4FF5898010EF64027008C2CDC2CCC2F3
:090BEA00C880037FFF227F002276
:100B8000C3E49DFDE49CFCEF700ACFEDCFEFF58A46
:100B9000ECF58C22EF6401700ACFEDCFEFF58BEC12
:100BA000F58D22EF64027011CFEDCFEFF5CC8FCA37
:090BB000CEECCEEEFFF5CD8FCBAB
:010BB9002219
:100D3400C2CDC2CCC2C9D2CBD2C8EF25E025E04295
:020D4400C922C2
:10000300C2CDC2CCD2C8C2C9EF25E025E0FFE5C905
:0800130054FD4F4401F5C92220
:03001B00020D8B48
:030D8B00B29732EA
:10079A00C29FD29EC29DC2CDC2CC43878090000028
:1007AA001205C10000061AE47B0AFAF9F890000063
:1007BA00E0FCA3E0FDA3E0FEA3E0FF120523CCE8E2
:1007CA00CCCDE9CDCEEACECFEBCF900004EFF090BE
:1007DA000000E0FCA3E0FDA3E0FEA3E0FFE47B0A47
:1007EA00FAF9F81205239000001205B5900004E00A
:1007FA00C3940574809480401F900000E0FCA3E03D
:10080A00FDA3E0FEA3E02401FFE43EFEE43DFDE497
:10081A003CFC9000001205B5E589540F4420F58987
:10082A0043C9A0900000A3A3A3E0F404F58DD28EDF
:04083A00D299D29CE1
:01083E002297
:080D71003098FDC298AF9922F1
:080D79008F993099FDC2992207
:0B0AB600900057EBF0A3EAF0A3E9F07A
:100AC100E4FFEFC3940374809480502F900057E0AB
:100AD100FBA3E0FAA3E0F98F82758300120492FE72
:100AE100E4FDEDC3940874809480500CEED295C25D
:0B0AF10095EE25E0FE0D80EA0F80C7A7
:010AFC0022D7
:090D6800C2957FC87E00020C80D8
:020D8E00002241
:020D900000223F
:1008DC00E4900003F0900003E0FFC394087480944C
:1008EC0080501FC374079FFF900000E0FEC8EFC844
:1008FC00088002C313D8FC120D0E900003E004F024
:10090C0080D39000037408F0900003E0FFC39410B0
:10091C0074809480501FC3740F9FFF900001E0FE01
:10092C00C8EFC8088002C313D8FC120D0E90000348
:10093C00E004F080D39000037410F0900003E0FF0B
:10094C00C39418748094805022C374179FFF900036
:10095C0002E0FEC8EFC8088002C313D8FC5401FFA4
:0B096C00120D11900003E004F080D099
:01097700225D
:030D0E005401FF8E
:100D1100EF64017006D29500008002D29500C29561
:010D210022AF
:030000000209787A
:0C097800787FE4F6D8FD7581210209BFEC
:10038300E709F608DFFA8046E709F208DFFA803E5C
:1003930088828C83E709F0A3DFFA8032E309F60849
:1003A300DFFA8078E309F208DFFA807088828C83B1
:1003B300E309F0A3DFFA806489828A83E0A3F60865
:1003C300DFFA805889828A83E0A3F208DFFA804C3F
:1003D30080D280FA80C680D4806980F28033801016
:1003E30080A680EA809A80A880DA80E280CA80337F
:1003F30089828A83ECFAE493A3C8C582C8CCC583F7
:10040300CCF0A3C8C582C8CCC583CCDFE9DEE780C6
:100413000D89828A83E493A3F608DFF9ECFAA9F045
:10042300EDFB2289828A83ECFAE0A3C8C582C8CC9B
:10043300C583CCF0A3C8C582C8CCC583CCDFEADEB4
:10044300E880DB89828A83E493A3F208DFF980CC16
:1004530088F0EF60010E4E60C388F0ED2402B4040F
:100463000050B9F582EB2402B4040050AF232345B6
:0604730082239003D37305
:10047900BB010689828A83E0225002E722BBFE0281
:09048900E32289828A83E49322B4
:10049200BB010CE58229F582E5833AF583E022501F
:1004A20006E92582F8E622BBFE06E92582F8E22269
:0D04B200E58229F582E5833AF583E4932283
:1004BF00BB010689828A83F0225002F722BBFE011C
:0204CF00F32216
:1004D100C5F0F8A3E028F0C5F0F8E58215827002B6
:0604E1001583E038F02253
:1004E70075F008758200EF2FFFEE33FECD33CDCCCC
:1004F70033CCC58233C5829BED9AEC99E58298404F
:100507000CF582EE9BFEED9AFDEC99FC0FD5F0D62B
:10051700E4CEFBE4CDFAE4CCF9A88222B800C1B955
:100527000059BA002DEC8BF084CFCECDFCE5F0CB93
:10053700F97818EF2FFFEE33FEED33FDEC33FCEBCC
:1005470033FB10D703994004EB99FB0FD8E5E4F987
:10055700FA227818EF2FFFEE33FEED33FDEC33FC74
:10056700C933C910D7059BE99A4007EC9BFCE99A68
:10057700F90FD8E0E4C9FAE4CCFB2275F010EF2FAD
:10058700FFEE33FEED33FDCC33CCC833C810D707AD
:100597009BEC9AE899400AED9BFDEC9AFCE899F8E8
:0E05A7000FD5F0DAE4CDFBE4CCFAE4C8F9227B
:0C05B500ECF0A3EDF0A3EEF0A3EFF022B9
:1005C100A8828583F0D083D0821205D81205D81273
:1005D10005D81205D8E473E493A3C583C5F0C58398
:1005E100C8C582C8F0A3C583C5F0C583C8C582C884
:0105F10022E7
:10001E00E5082403F582E43400F583E00508229018
:10002E000000300703900003E475F0011205F202A0
:10003E0004792000E97F2ED2008018EF540F24900F
:10004E00D43440D4FF30040BEF24BFB41A00500355
:10005E002461FFE50960021509050CE50C70020527
:10006E000B30070E900000E475F0011205F2EF025E
:10007E0004BF020C207403D2078003E4C207F50804
:10008E00900000120609E4F509F50BF50CE5096080
:10009E00077F2012006180F5750AFFC201C200C2FF
:1000AE0002C203C205C206C20812002DFF700D3037
:1000BE0007057F00120072AF0CAE0B22B4255FC293
:1000CE00D5C20412002DFF24D0B40A00501A75F0C8
:1000DE000A780930D50508B6FF0106C6A426F62013
:1000EE00D5047002D20380D924CFB41A00EF500485
:1000FE00C2E5D204020273D20180C6D20080C0D201
:10010E000280BCD2D580BAD20580B47F20120061A5
:10011E002002077401B5090040F112001EFF120003
:10012E006102009BD208D206809512001EFB1200BF
:10013E001EFA12001EF94A4B700679447A037BFFB1
:10014E0020022EE509602A7E008E8275830012043D
:10015E009260060EEE650A70F0C2D5EBC0E0EAC002
:10016E00E0E9C0E0EE1202BAD0E0F9D0E0FAD0E059
:10017E00FB120479FF60AAEBC0E0EAC0E0E9C0E040
:10018E00120061D0E02401F9D0E03400FAD0E0FB97
:10019E00E50A0460DCD50AD980877BFF7A0279B63E
:1001AE00D202809C791080027908C206C2088008AB
:1001BE00D2D5790A8004790AC2D5E50A047002F50F
:1001CE000AE4FAFDFEFF12001EFC7B08200113124A
:1001DE00001EFD7B1030000A12001EFE12001EFFD4
:1001EE007B20EC3382D592D55013C3E43000069FAA
:1001FE00FFE49EFEE42001039DFDE49CFCE4CBF8AD
:10020E00C201EC700CCFCECDCCE824F8F870F380A0
:10021E0017C3EF33FFEE33FEED33FDEC33FCEB3360
:10022E00FB994002FB0FD8E9EB300105F8D0E0C492
:10023E0048B201C0E00AEC4D4E4F78207B0070C2F0
:10024E00EAB50A0040BCC0E01202BCD0F0D0E020FB
:10025E000104C4C0E0C4B201C0F012004AD0F0D50F
:10026E00F0EB02009B12061201385301B25801093D
:10027E004C01054201B64F01BE4401BE49011E4369
:08028E0001C45501A84601A8B6
:100296004501A847036450010D2D01112E01342B91
:1002A600011523013220034D2A00CD480000012C00
:1002B6003F3F3F00790AA2D5200314300509B91043
:1002C600020404B9080104A2D52006025001042044
:1002D60002689202B509005034C0E07F203003194D
:1002E6007F30A20272067205500F120313C202C2B9
:1002F60006C205C2087F30800F300503E9C0E01250
:100306000061300503D0E0F9D0E0B509CC3005171F
:100316007F30B9100C1200617F583004077F788057
:1003260003B908031200613002057F2D0200617FC8
:10033600202008F87F2B2006F322920280CF286E19
:10034600756C6C2900D20112001E3001F8C20178CA
:100356000930D50108F60200CD2D50434958120048
:100366001E2403B405004001E490035F931200527B
:0D037600743A120052D2037509040201B25C
:10098400020638E493A3F8E493A34003F68001F24B
:1009940008DFF48029E493A3F85407240CC8C33374
:1009A400C4540F4420C8834004F456800146F6DF43
:1009B400E4800B0102040810204080900D81E47E45
:1009C400019360BCA3FF543F30E509541FFEE49338
:1009D400A360010ECF54C025E060A840B8E493A3FF
:1009E400FAE493A3F8E493A3C8C582C8CAC583CA2A
:1009F400F0A3C8C582C8CAC583CADFE9DEE780BEE2
:010D8700006B
:1005F200F8E0FBA3A3E0F925F0F0E5821582700292
:070602001583E0FA38F02235
:09060900EBF0A3EAF0A3E9F022F2
:10061200D083D082F8E4937012740193700DA3A377
:1006220093F8740193F5828883E47374029368608B
:06063200EFA3A3A380DF8B
:100C2000EFB40A07740D120C2B740A309811A899AE
:100C3000B8130CC2983098FDA899C298B811F63034
:070C400099FDC299F599220C
:00000001FF
